:10000000F0EF08F01E681200046ED8CF05F0E0CFC4
:1000100006F00001E9CF0CF0EACF07F0E1CF08F0DD
:10002000E2CF09F0D9CF0AF0DACF0BF0F3CF12F01C
:10003000F4CF13F0FACF14F000C00EF001C00FF0AF
:1000400002C010F003C011F0A0AA2AEF00F0A1BA7C
:10005000CFEF06F00EC000F00FC001F010C002F0AC
:1000600011C003F00CC0E9FF07C0EAFF078E08C00B
:10007000E1FF09C0E2FF0AC0D9FF0BC0DAFF12C0DE
:10008000F3FF13C0F4FF14C0FAFF045006C0E0FFF2
:1000900005C0D8FF1000F76AA60FF66E000EF72213
:1000A0000900F550120004030100000000000000E8
:1000B000000000000000F76AC60FF66E000EF7227F
:1000C0000900F550120004000100000000000000CB
:1000D000000000000000F76AE60FF66E000EF7223F
:1000E0000900F55012004000080040000000000028
:1000F0000000000000000000000000000000000000
:1001000000000000000007AE03D0F2CF0DF0F29E19
:10011000F76A280FF66E010EF7220900F55007AEB8
:1001200002D00DBEF28E1200400000004000000020
:1001300000000000000000000000000000000000BF
:100140000000000000000000F76A580FF66E010E74
:10015000F7220900F550120009024300020100C015
:10016000320904000001020201000524001001040C
:10017000240202052406000105240100010705816F
:10018000030800FA09040100020A00000007050242
:10019000024000FA070582024000FA00F76AAC0F3D
:1001A000F66E010EF7220900F55012000200F76A00
:1001B000BE0FF66E010EF7220900F5501200120173
:1001C000100102000040D8040A00000101020001F1
:1001D000F76AE00FF66E010EF7220900F5501200E3
:1001E0000403090408034300430053001E034300B3
:1001F000430053002000520053003200330032000D
:100200002000440065006D006F006D926994689451
:10021000DAEF06F06A6A6892E1EF06F02A6A296A64
:10022000250E286E800E276E2B6A2C6A080E2D6E06
:100230007D6B78932F6A2E6A796B7A9178811200A0
:10024000A16BA15101080AE3036AA151250FE96ED0
:10025000000E0320EA6EEF6AA12BF3D7DFDF186AE6
:10026000010E196E176A1200010EAA6FAA510F082B
:100270000EE3700EAA25016E0F0E036ED8B0032A8E
:1002800001C0E9FF03C0EAFFEF6AAA2BEFD71C6A9F
:100290001B6A1200400E0401016F050E036F026B12
:1002A000880E006F046B050E076F400E066F00018D
:1002B00012006A6A686A9F0E6B6E390E696E6E6A0A
:1002C000BFDFD2DF160E706E68A602D06896FCD72C
:1002D0006D98E0DF030E1D6EE6EF06F06984689806
:1002E0006D82EBEF06F0689CF0EF06F070A002D094
:1002F000D1DF7090689AF5EF06F0A5C01EF01200ED
:10030000A36B245234E0A3513F0831E31A5005E0B7
:10031000020A0DE0010A15E01DD0036A2350F2CF56
:10032000A5F0F29E11DFA5BFF28EA46F13D0036A71
:100330002350F2CFA5F0F29E4BDFA5BFF28EA46F43
:1003400009D0036A2350F2CFA5F0F29E30DFA5BF9B
:10035000F28EA46F232A2406A351A32B036A400F15
:10036000E96E050E0320EA6EA4C0EFFFCAD724523F
:1003700004E1A351400801E0176AA3C0A5F0BDDF66
:100380001200236A1A6A05010351010A000105E0FF
:10039000030A08E0010A09E01FD0120E246E030EC2
:1003A0001A6E1CD0430E246E19D0020E1A6E036A08
:1003B000050102511F0FE96E000E0320EA6EEFCF18
:1003C00023F0036A2350F2CFA2F0F29E000100DF77
:1003D000A2BFF28E246E02D015DE0CD005010753A9
:1003E00005E12450065D02E206C524F0010E176EF9
:1003F000000186DF1AEF03F0A25304E1040E1D6E24
:1004000033DFC3D0050E1D6EA56F800EA46F010EE5
:10041000A36FA3510F08D8A0B8D0A66B036AA3514D
:10042000F2CFAAF0F29E47DEAABFF28E000A53E096
:10043000040EA66FD890A335036AF2CFAAF0F29EFD
:1004400062DE0900F5CF03F0AABFF28EA76F03C0EA
:10045000A8F0A351080DF350010F016E040E036EB6
:10046000D8B0032A01C0E9FF03C0EAFFA7C0EFFF2D
:10047000A351080DF350020F016E040E036ED8B0A5
:10048000032A01C0E9FF03C0EAFFA5C0ECFFED525B
:10049000A4C0EFFFD890A335036AF2CFAAF0F29E72
:1004A00032DE0900F5CF03F0AABFF28EA427035075
:1004B000A523880EA96FA8A101D0A981A8A301D066
:1004C000A983A351080DF3CF01F0040E01C0E9FF89
:1004D000EA6EA9C0EFFF036AA351F2CFAAF0F29E21
:1004E000DADDAABFF28E000A31E0A683A351080D1F
:1004F000F350060F016E040E036ED8B0032A01C03C
:10050000E9FF03C0EAFFA5C0ECFFED52A4C0EFFF76
:10051000D890A335036AF2CFAAF0F29EDCDD090081
:10052000F5CF03F0AABFF28EA4270350A523A35151
:10053000080DF350040F016E040E036ED8B0032AA9
:1005400001C0E9FF03C0EAFF400EEF6EA6510608A6
:1005500002E10E0EA66F036AA351F2CFAAF0F29E3B
:100560009ADDAABFF28E020801E0A689700EA325CB
:10057000016E0F0E036ED8B0032A01C0E9FF03C05D
:10058000EAFFA6C0EFFFA32B44D714EF03F0050149
:100590000151000A00010DE0010A14E0020A1FE007
:1005A000060A29E0030A2EE00E0A2EE0010A32E0D4
:1005B00040D019C040F50501416B020E0001A56F46
:1005C0009CDE38D00501022D07D0010E191600015E
:1005D000A56B93DE03D00501000114DD2BD00501CE
:1005E000022D06D019820001A56B87DE03D005011C
:1005F000000108DD1FD0020E176E02C522F0A56BA8
:100600007CDE18D0BED616D018C040F5010EA56FFE
:1006100074DE10D005010251010809E302C518F08B
:1006200002C5A2F00001E8D6A56B67DE0501000156
:1006300001D0E8DC97EF04F018C0A2F005010151E9
:10064000000A000105E00A0A0BE0010A2BE03CD099
:100650000501406B416B020E0001A56F4EDE35D0E7
:10066000A2531EE0010EA25D036AF2CFA3F0F29E38
:1006700095DDA3BFF28E016E0501045DD8A002D006
:1006800000010ED0036A0451250FE96E000E03200D
:10069000EA6EEFCF40F5010E0001A56F2EDE01D00E
:1006A000B1DC13D0A2530EE0036A05010451250FFB
:1006B000E96E000E0320EA6E02C5EFFF0001A56B94
:1006C0001CDE01D09FDC01D09DDC97EF04F0A391EC
:1006D000A2BFA381A29FA3A110D0036AA251F2CF0F
:1006E000A4F0F29ED8DCA4BFF28E000A02E1000E54
:1006F00001D0010E016E0FD00ED0036AA251F2CFCD
:10070000A4F0F29ED8DCA4BFF28E000A02E1000E33
:1007100001D0010E016EFDEF03F0A391A2BFA381F2
:10072000A29FA3A110D0A251080DF350040F016E97
:10073000040E036ED8B0032A01C0E9FF03C0EAFF2C
:10074000880EEF6E09D0A251080DF3CF01F0040E10
:1007500001C0E9FFEA6EEF6A0CEF04F0A391A2BFBB
:10076000A381A29FA3A110D0A251080DF350040FA2
:10077000016E040E036ED8B0032A01C0E9FF03C066
:10078000EAFF840EEF6E0AD0A251080DF3CF01F0FC
:10079000040E01C0E9FFEA6E840EEF6E12EF04F062
:1007A000A391A2BFA381A29FA3A110D0A251080D23
:1007B000F350040F016E040E036ED8B0032A01C07B
:1007C000E9FF03C0EAFFEFCFA4F00AD0A251080D61
:1007D000F3CF01F0040E01C0E9FFEA6EEFCFA4F001
:1007E000A4AF02D0A4B502D0000E01D0010E016E5C
:1007F0001CEF04F004C5A2F06AD7015229E00501FC
:100800000151010A000105E0020A09E0030A0DE0B6
:100810001DD004C5A2F081D7A56B6FDD19D004C52A
:10082000A2F09CD7A56B69DD13D00501406B416B2D
:1008300004C5A2F00001B4D7015204E0010E050185
:10084000406F0001020EA56F58DD02D002EC00F0EF
:1008500097EF04F0FE0E1E6E12000501042D01D06C
:1008600002D0045349E10151000A00010BE0010AE2
:100870000DE0210A1CE0010A1FE0030A2EE0010A34
:1008800031E037D0010E7E6FE5DF35D0050EEA6E20
:10089000400EE96EE26A300EE16E080E016EE6CFA0
:1008A000EEFF012EFCD706C5A5F027DD24D0020EF1
:1008B0007E6F7883CFDF1FD0050EEA6E400EE96EA3
:1008C000E26A270EE16E070E016EE6CFEEFF012E03
:1008D000FCD7070EA56F11DD0ED002C57DF0A56B0C
:1008E0000CDD09D002C52FF003C52EF0A56B05DD88
:1008F00002D002EC00F00501000197EF04F0176A46
:10090000050100517F0B000A000107E0010A07E022
:10091000030A07E0230A07E008D039D608D08CD6AE
:1009200006D068D704D099D702D002EC00F07BEF54
:1009300006F0A251080DF3CF01F0040E01C0E9FF4B
:10094000EA6EEFCFA4F0A351020806E1A4AD02D0F5
:10095000A36B02D0010EA36FA351030812E1840E12
:10096000A46FA251080DF350040F016E040E036E24
:10097000D8B0032A01C0E9FF03C0EAFF840EEF6E7E
:1009800009D0A32D03D0C80EA46F04D0A35302E155
:10099000880EA46F036A010E026EA251006E05E07C
:1009A000D89002360336002EFBD70250FF0A006EA5
:1009B000FF0E031A00501B1603501C16D890A235C8
:1009C000036AF2CFA7F0F29E83EC00F00900F5CFA6
:1009D00003F0A7BFF28EA56F03C0A6F0A251080DC9
:1009E000F350010F016E040E036ED8B0032A01C04C
:1009F000E9FF03C0EAFFA5C0EFFFA6A101D0A481D3
:100A0000A6A301D0A483A251080DF3CF01F0040ED8
:100A100001C0E9FFEA6EA4C0EFFF1200AE51080D5D
:100A2000F350040F016E040E036ED8B0032A01C008
:100A3000E9FF03C0EAFFEFCFB2F0B2BF5CD0AE5126
:100A4000080DF350050F016E040E036ED8B0032A93
:100A500001C0E9FF03C0EAFFAFC0EFFFB1510208D8
:100A600016E1AE51080DF350040F016E040E036E33
:100A7000D8B0032A01C0E9FF03C0EAFFEFCFB2F00C
:100A8000B2AD02D0B16B02D0010EB16F13D0B15133
:100A9000040810E1AE51080DF3CF01F0040E01C0BF
:100AA000E9FFEA6EEFCFB2F0B2AD03D0010EB16F45
:100AB00001D0B16BB12D03D0C80EB26F04D0B153C9
:100AC00002E1880EB26FB0A101D0B281B0A301D013
:100AD000B283AE51080DF350040F016E040E036E85
:100AE000D8B0032A01C0E9FF03C0EAFFB2C0EFFF9C
:100AF000010E016E02D0000E016E12007E51010A3D
:100B000003E0030A12E022D0EA6A300EE96E050E15
:100B1000E26EE16A080E016EE6CFEEFF012EFCD711
:100B2000A56B7DEC01F07E6B14D0EA6A270EE96EAE
:100B3000050EE26EE16A070E016EE6CFEEFF012EB2
:100B4000FCD77E6BA56B7DEC01F003D07E6B4AEC8D
:100B500001F0CBEF05F0A351080DF350010F016E2A
:100B6000040E036ED8B0032A01C0E9FF03C0EAFFF8
:100B7000036AEFCF01F003C002F0C4EF05F07A8101
:100B80007C6B020EA36FE7D701C07BF0D0EF05F0BE
:100B9000A25302E1B3D714D0A251020802E1EFD769
:100BA0000FD0036A010E026EA251006E05E0D890CC
:100BB00002360336002EFBD702501B1203501C12C4
:100BC0001200A3C06EFFA35303E0040E1D6E02D0FB
:100BD000020E1D6EF1EF05F0186A176A22C0A3F02D
:100BE000F0D765EF06F0A351080DF350040F016E26
:100BF000040E036ED8B0032A01C0E9FF03C0EAFF68
:100C0000EFCFABF0ABBF3CD0A351080DF350060FB4
:100C1000016E040E036ED8B0032A01C0E9FF03C0C1
:100C2000EAFFECCFADF0ED52EFCFACF0AA6BA96BC1
:100C3000AA51A75D1AE303E1A651A95D16E2A4C07B
:100C4000E9FFA5C0EAFFEFCFB0F0ADC0EAFFACC04E
:100C5000E9FFB0C0EFFFAC2BD8B4AD2BA42BD8B4B8
:100C6000A52BA92BD8B4AA2BE3D7A3C0AEF0A7C05D
:100C7000B0F0A6C0AFF0A8C0B1F0D0DE015002D0F5
:100C8000000E016E120079530DE07891020EA36FF1
:100C9000A56B380EA46FA76B79C0A6F0020EA86FE3
:100CA000A2DF796B1200795302E0EDDF01D0788189
:100CB0006AEF06F0A2530AE1172C03D080EC01F092
:100CC00004D017500208D8B487D704D0A251020824
:100CD00001E1E9D712006C30A16FA133A1331F0EDF
:100CE000A1176C523BE1040100513C0B34081BE19D
:100CF000046B000104D61E3C05D0A26B030EA36F4B
:100D000018DE0ED0A26B020EA36F13DE1E50FE087B
:100D100007E0AE6BB06B1EC0AFF0040EB16F7EDEAD
:100D20006D9819D0040100513C0B040815E1000135
:100D3000A26B2EDFA26B020EA36FFBDD1E50FE081E
:100D40000AE01E3C01D007D0AE6BB06B1EC0AFF006
:100D5000010EB16F63DE04011FD000016C50040866
:100D600011E11E68A26BA6DF1E3C01D008D0AE6B5D
:100D7000B06B1EC0AFF0020EB16F50DE02D04AEC75
:100D800001F009D06CB404D0A1C0A2F001DF03D0FF
:100D9000A1C0A2F08FDF04010001FAEF06F01D529E
:100DA000D8B429D06852D8B426D068A403D069B486
:100DB00005EF01F06DB21FD068A203D069B20AEF4F
:100DC00001F068A003D069B059EF01F068A803D022
:100DD00069B86EEF01F068AC03D069BC73EF01F045
:100DE00068AA03D069BA76EF01F068A604D069A6B4
:100DF00002D071D76896A19A2AEF00F0EA6A8A0EAB
:100E0000E96EEF500EE00F0E016E006A002EFED765
:100E1000012EFBD78F0E006E002EFED70000EF2EA6
:100E2000F2D712006D6A696A080E6F6E945030092D
:100E3000946E1D6A166AF2BE168EF29E20EC01F0C8
:100E400016BEF28E1C6A1B6A49EF07F0166AF2BEE4
:100E5000168EF29E20EC01F016BEF28E6D6A140E14
:100E60006F6E696A6D86010E1D6E3AEF07F06DB602
:100E700001D0ECD71D2C0BD06DBA09D0686A696A15
:100E8000A08AC00EF212110E696E020E1D6E1200C3
:100E9000C9D7EDDF1D500208FCE1120078B303D082
:100EA0000EEC01F0F5DFE3DF54EF09F07AA1FED795
:100EB0007C517C2B036A880FE96E050E0320EA6ED5
:100EC000EFCF8AF07B517C5D0BE37A91166AF2BE1C
:100ED000168EF29E020EA26FA36F2BDD16BEF28E4F
:100EE0008AC001F01200000E926E936E946E956EA1
:100EF000966E926A1F0E896E936A8A68946A8B68EE
:100F0000956A8C68966A030E8D6E75EF09F09EA83F
:100F1000FED7AD6E12008E91F2BE8E81F29E795197
:100F20003F0802E23F0E796F7951792B036A380F3F
:100F3000E96E000E0320EA6E8DC0EFFFF29E8EB1C7
:100F4000F28E78A107D0166AF2BE168EF29E9BDE54
:100F500016BEF28EBCEF07F079513F080AE278A185
:100F600007D0166AF2BE168EF29E8DDE16BEF28E87
:100F7000F3D78CC08DF0CFD712008B2D03D08351C7
:100F8000C6DF03D083C08CF0E7DF12008A51FB0F6D
:100F900059E2050F24EF08F0815306E1000E926E2E
:100FA000926A82C089FF09D0FF0E926E92688050CB
:100FB0007F0B836F84C08BF0E0DF44D0815306E168
:100FC000000E936E936A82C08AFF08D0FF0E936E64
:100FD000936881CF83F084C08BF0CFDF33D081530F
:100FE00006E1000E946E946A82C08BFF08D0FF0E5B
:100FF000946E946882CF83F084C08BF0BEDF22D0E1
:10100000815306E1000E956E956A82C08CFF08D070
:10101000FF0E956E956883CF83F084C08BF0ADDFB3
:1010200011D0815306E1000E966E966A82C08DFF44
:1010300009D0FF0E966E96688450030B836F84C0B0
:101040008BF09BDFBEEF09F0F2CF0DF0F29EE824AB
:10105000F76AF7366D0FF66E100EF7220A00F5509C
:10106000FA6E0800F5500DBEF28EF96E980FBC0FA7
:10107000DE0F00102210010E8D5F0CE3EA6A8D0E68
:10108000E96EEF5007E0020E006E002EFED700D092
:10109000EF2EF9D712008B35006E0036FC0E0016CD
:1010A000C250C30B0010C26E020E8C6F960E8D6F75
:1010B000E2DF8C2FFBD7C282C2B2FED7C3CF88F04B
:1010C000C4CF89F089C085F088C086F0020E8C6F8D
:1010D000960E8D6FD0DF8C2FFBD7842D05D08551D8
:1010E00016DF865114DF06D085C08CF035DF86C050
:1010F0008CF032DF1200C050C00B0709C06EC08EEA
:10110000C2808A5105E0010A1CE0030A33E04AD09C
:10111000825305E1C150C00B0A09C16E0ED0822D69
:1011200005D0C150C00B1A09C16E07D08251020808
:1011300004E1C150C00B3A09C16E81C08BF0ABDF36
:1011400031D0825305E1C150C00B0709C16E0ED0EA
:10115000822D05D0C150C00B1709C16E07D0825136
:10116000020804E1C150C00B3709C16E81C08BF089
:1011700092DF18D0825304E1C150C00BC16E0ED073
:10118000822D05D0C150C00B1009C16E07D082510D
:10119000020804E1C150C00B3009C16E81C08BF060
:1011A0007ADF00D0BEEF09F0FF0E946E815305E1A7
:1011B000000E946E8251ABDE09D0FF0E946E9EAA93
:1011C000FED7AECF83F083C08CF0C6DEBEEF09F051
:1011D000FF0E926E936E946E956E966EBEEF09F052
:1011E000F86AD09E078EB886E10EAF6E040EB06E20
:1011F000A60EAC6E900EAB6E1D6A246A796B7E6B88
:10120000846BC150C00B0F09C16E070EB46E1F6A0C
:10121000040E206E0C0E216EC150C00B0F09C16E62
:101220000A0E8A6FEBDD0EEC01F032DE876B78B3CD
:101230000AD08751630807E31ADE010E87270F0ED5
:101240008A6FDCDDF4D78751630803E310DE876B18
:1012500002D0640E876F18520AE18751630807E3D2
:1012600006DE010E8727140E8A6FC8DDF4D787517A
:10127000630802E3846B02D0010E846F842D13D0C7
:101280009EAAFED79EAAFED7AECF7FF09EAAFED71B
:101290009EAAFED7AECF80F09EAAFED79EAAFED70A
:1012A000AECF81F016D0FAD57AB102D0E0DDFCD70E
:1012B000FDDD01C07FF07AB102D0D9DDFCD7F6DDCB
:1012C00001C080F07AB102D0D2DDFCD7EFDD01C0E1
:1012D00081F07F5107E0010A0EE0030A22E0010AD3
:1012E00034E049D080C08AF0FED5000E926E926A3A
:1012F000290E896E43D0815310E1842D07D09EAA18
:10130000FED79EAAFED7AECF82F007D07AB102D028
:10131000AEDDFCD7CBDD01C082F080C08AF036D6CE
:101320002DD0842D07D09EAAFED79EAAFED7AECF81
:1013300082F007D07AB102D09ADDFCD7B7DD01C0C8
:1013400082F080C08AF0D7D619D0815310E1842D65
:1013500007D09EAAFED79EAAFED7AECF82F007D0B6
:101360007AB102D084DDFCD7A1DD01C082F080C05B
:101370008AF01AD703D080C08AF02AD77FD703001B
:020000040030CA
:0E00000024CE3E1E0087A1000FC00FE00F406F
:00000001FF
;PIC18F4550
;CRC=DB88  CREATED="02-jun.-26 22:00"
